:1000000012C02CC02BC02AC029C028C027C026C0BF
:1000100025C024C023C022C021C020C01FC01EC0D4
:100020001DC01CC01BC011241FBECFE5D4E0DEBF25
:10003000CDBF10E0A0E6B0E0ECE8F3E002C0059030
:100040000D92A836B107D9F710E0A8E6B0E001C0DC
:100050001D92A836B107E1F702D097C1D1CFCFE505
:10006000D2E0DEBFCDBF8FEF87BB18BA28E833E1FF
:10007000E0E9F1E0CF010197F1F721503040D1F7ED
:100080008FEF88BB8FE381BB12BA8AE18A95F1F7C3
:10009000CE010196DCD0CE018F5F9E4FD8D003E019
:1000A00021E0402F63E081E091E08C0F9D1F53D150
:1000B00022E0402F64E081E091E08C0F9D1F4BD146
:1000C00023E0402F65E081E091E08C0F9D1F43D13C
:1000D00022E0402F67E081E091E08C0F9D1F3BD133
:1000E00022E0402F68E081E091E08C0F9D1F33D12A
:1000F00022E0402F67E0CE0101962DD122E0402F73
:1001000068E0CE01019627D123E0402F66E081E030
:1001100091E08C0F9D1F1FD122E0402F69E081E00C
:1001200091E08C0F9D1F17D122E0402F66E0CE0199
:10013000019611D123E0402F69E0CE0101960BD149
:1001400023E0402F6AE0CE01019605D122E0402F46
:100150006BE0CE010196FFD021E0402F6CE0CE0194
:100160000196F9D00F5F0D3009F09ACF82B3886104
:1001700082BB95E0892F8A95F1F782B3877E82BB97
:10018000892F8A95F1F7959A892F8A95F1F7939A95
:100190009A95F1F735E2E32E21E0A22EB12C6E0103
:1001A0000894C11CD11C60E070E040E050E0850183
:1001B000062E02C0000F111F0A94E2F7939A8E2DAB
:1001C0008A95F1F7D601A40FB51F9E012F5F3E4F10
:1001D000240F351FFF249098EC91FF27EE0FFF1F8F
:1001E000E05AFF4F8081918180239123892B09F070
:1001F000909A9198F9018081E82FFF27EE0FFF1F59
:10020000E05AFF4F8081918180239123892B09F04F
:10021000919A929A9298F3945096205F3F4FF0E112
:10022000FF16C9F680E18A95F1F7939880E28A95E6
:10023000F1F74F5F5F4F4031510509F0BFCF939AFF
:100240006F5F7F4F6031710509F0AFCFACCF30E108
:10025000FC0120E011922F5F2031E1F731504096F0
:100260003323B1F70895FF920F931F93CF93DF933A
:100270009C016C3611F5EC01BC0160517F4F40E0F0
:1002800050E08C01005F1F4FF880D801A40FB51F0C
:10029000F901E40FF51F9FE08C91808391505096F7
:1002A00070969923C9F7FB01F192BF014F5F5F4F31
:1002B00021964031510521F1E7CF623709F5EC0174
:1002C000C051DF4F8E0140E050E0BC0160527F4FD3
:1002D000F880DB01A40FB51FF801E40FF51F9FE0C4
:1002E0008C9180839150509770979923C9F7F901A9
:1002F000F1929F014F5F5F4F21964031510541F7C9
:10030000DF91CF911F910F91FF900895653781F490
:10031000DC0120E13C91FD019FE0818181939150BE
:10032000E1F7FD01378721505096222399F0F2CF53
:10033000643681F4DC0120E0FD0137859FE086858D
:100340008787915031979923D1F73C932F5F50962F
:10035000203191F70895E62FFF2734E0EE0FFF1FBD
:100360003A95E1F7E80FF91FE40FF11D2083089596
:10037000E62FFF2754E0EE0FFF1F5A95E1F7E80F35
:0C038000F91FE40FF11D10820895FFCF5B
:08038C00000000802489FFFF3E
:00000001FF
